{
  "_format": "hh-sol-artifact-1",
  "contractName": "HashStorage",
  "sourceName": "contracts/HashStorage.sol",
  "abi": [
    {
      "anonymous": false,
      "inputs": [
        {
          "indexed": false,
          "internalType": "string",
          "name": "hash",
          "type": "string"
        },
        {
          "indexed": false,
          "internalType": "string",
          "name": "reason",
          "type": "string"
        }
      ],
      "name": "HashDeleteFailed",
      "type": "event"
    },
    {
      "anonymous": false,
      "inputs": [
        {
          "indexed": false,
          "internalType": "string",
          "name": "hash",
          "type": "string"
        }
      ],
      "name": "HashDeleted",
      "type": "event"
    },
    {
      "anonymous": false,
      "inputs": [
        {
          "indexed": false,
          "internalType": "string",
          "name": "hash",
          "type": "string"
        },
        {
          "indexed": false,
          "internalType": "string",
          "name": "reason",
          "type": "string"
        }
      ],
      "name": "HashStoreFailed",
      "type": "event"
    },
    {
      "anonymous": false,
      "inputs": [
        {
          "indexed": false,
          "internalType": "string",
          "name": "hash",
          "type": "string"
        }
      ],
      "name": "HashStored",
      "type": "event"
    },
    {
      "inputs": [
        {
          "internalType": "string",
          "name": "hash",
          "type": "string"
        }
      ],
      "name": "deleteHash",
      "outputs": [
        {
          "internalType": "string",
          "name": "",
          "type": "string"
        }
      ],
      "stateMutability": "nonpayable",
      "type": "function"
    },
    {
      "inputs": [
        {
          "internalType": "string",
          "name": "hash",
          "type": "string"
        },
        {
          "internalType": "string",
          "name": "param",
          "type": "string"
        }
      ],
      "name": "storeHash",
      "outputs": [
        {
          "internalType": "string",
          "name": "",
          "type": "string"
        }
      ],
      "stateMutability": "nonpayable",
      "type": "function"
    },
    {
      "inputs": [
        {
          "internalType": "string",
          "name": "hash",
          "type": "string"
        }
      ],
      "name": "verifyHash",
      "outputs": [
        {
          "internalType": "bool",
          "name": "",
          "type": "bool"
        },
        {
          "internalType": "string",
          "name": "",
          "type": "string"
        }
      ],
      "stateMutability": "view",
      "type": "function"
    }
  ],
  "bytecode": "0x608060405234801561001057600080fd5b50610e91806100206000396000f3fe608060405234801561001057600080fd5b50600436106100415760003560e01c80636f28ee091461004657806386fb281314610076578063a856481c146100a7575b600080fd5b610060600480360381019061005b9190610784565b6100d7565b60405161006d919061087b565b60405180910390f35b610090600480360381019061008b919061089d565b6102f5565b60405161009e929190610901565b60405180910390f35b6100c160048036038101906100bc919061089d565b610434565b6040516100ce919061087b565b60405180910390f35b60606000836040516100e9919061096d565b908152602001604051809103902060009054906101000a900460ff168015610139575060018360405161011c919061096d565b908152602001604051809103902060009054906101000a900460ff165b156101b2577f1bd68487f56fd1cac25d985db07fe5b569b4cdbd44d75749b6574b7162dcb4198360405161016d91906109d0565b60405180910390a16040518060400160405280601381526020017f4861736820616c7265616479206578697374730000000000000000000000000081525090506102ef565b6040518060400160405280848152602001838152506002846040516101d7919061096d565b908152602001604051809103902060008201518160000190816101fa9190610c1b565b5060208201518160010190816102109190610c1b565b509050506001600084604051610226919061096d565b908152602001604051809103902060006101000a81548160ff0219169083151502179055506001808460405161025c919061096d565b908152602001604051809103902060006101000a81548160ff0219169083151502179055507fc11dc30fab9e1049e39849c934756251850c71b749c0dff181b2a28074fca60e6040516102ae90610d39565b60405180910390a16040518060400160405280600b81526020017f486173682053746f72656400000000000000000000000000000000000000000081525090505b92915050565b60006060600083604051610309919061096d565b908152602001604051809103902060009054906101000a900460ff1615801561035b575060018360405161033d919061096d565b908152602001604051809103902060009054906101000a900460ff16155b1561037b576001604051806020016040528060008152509150915061042f565b600060028460405161038d919061096d565b90815260200160405180910390206001018080546103aa90610a34565b80601f01602080910402602001604051908101604052809291908181526020018280546103d690610a34565b80156104235780601f106103f857610100808354040283529160200191610423565b820191906000526020600020905b81548152906001019060200180831161040657829003601f168201915b50505050509050915091505b915091565b6060600082604051610446919061096d565b908152602001604051809103902060009054906101000a900460ff166104da577f8c1ad75e6c7eaa3e4cba65f0fb6c781e4a6bf84d1ec952823be277270502bdee826040516104959190610da5565b60405180910390a16040518060400160405280601381526020017f4861736820646f6573206e6f74206578697374000000000000000000000000008152509050610625565b6001826040516104ea919061096d565b908152602001604051809103902060009054906101000a900460ff1661057e577f8c1ad75e6c7eaa3e4cba65f0fb6c781e4a6bf84d1ec952823be277270502bdee826040516105399190610e26565b60405180910390a16040518060400160405280601481526020017f4861736820616c726561647920657870697265640000000000000000000000008152509050610625565b6000600183604051610590919061096d565b908152602001604051809103902060006101000a81548160ff0219169083151502179055507f8ecb468e2f182ba98c1b7a52663d6e565ba67dc110006dec32a865d8ae45284c826040516105e4919061087b565b60405180910390a16040518060400160405280601981526020017f486173682065787069726564207375636365737366756c6c790000000000000081525090505b919050565b6000604051905090565b600080fd5b600080fd5b600080fd5b600080fd5b6000601f19601f8301169050919050565b7f4e487b7100000000000000000000000000000000000000000000000000000000600052604160045260246000fd5b61069182610648565b810181811067ffffffffffffffff821117156106b0576106af610659565b5b80604052505050565b60006106c361062a565b90506106cf8282610688565b919050565b600067ffffffffffffffff8211156106ef576106ee610659565b5b6106f882610648565b9050602081019050919050565b82818337600083830152505050565b6000610727610722846106d4565b6106b9565b90508281526020810184848401111561074357610742610643565b5b61074e848285610705565b509392505050565b600082601f83011261076b5761076a61063e565b5b813561077b848260208601610714565b91505092915050565b6000806040838503121561079b5761079a610634565b5b600083013567ffffffffffffffff8111156107b9576107b8610639565b5b6107c585828601610756565b925050602083013567ffffffffffffffff8111156107e6576107e5610639565b5b6107f285828601610756565b9150509250929050565b600081519050919050565b600082825260208201905092915050565b60005b8381101561083657808201518184015260208101905061081b565b60008484015250505050565b600061084d826107fc565b6108578185610807565b9350610867818560208601610818565b61087081610648565b840191505092915050565b600060208201905081810360008301526108958184610842565b905092915050565b6000602082840312156108b3576108b2610634565b5b600082013567ffffffffffffffff8111156108d1576108d0610639565b5b6108dd84828501610756565b91505092915050565b60008115159050919050565b6108fb816108e6565b82525050565b600060408201905061091660008301856108f2565b81810360208301526109288184610842565b90509392505050565b600081905092915050565b6000610947826107fc565b6109518185610931565b9350610961818560208601610818565b80840191505092915050565b6000610979828461093c565b915081905092915050565b7f4861736820616c72656164792065786973747300000000000000000000000000600082015250565b60006109ba601383610807565b91506109c582610984565b602082019050919050565b600060408201905081810360008301526109ea8184610842565b905081810360208301526109fd816109ad565b905092915050565b7f4e487b7100000000000000000000000000000000000000000000000000000000600052602260045260246000fd5b60006002820490506001821680610a4c57607f821691505b602082108103610a5f57610a5e610a05565b5b50919050565b60008190508160005260206000209050919050565b60006020601f8301049050919050565b600082821b905092915050565b600060088302610ac77fffffffffffffffffffffffffffffffffffffffffffffffffffffffffffffffff82610a8a565b610ad18683610a8a565b95508019841693508086168417925050509392505050565b6000819050919050565b6000819050919050565b6000610b18610b13610b0e84610ae9565b610af3565b610ae9565b9050919050565b6000819050919050565b610b3283610afd565b610b46610b3e82610b1f565b848454610a97565b825550505050565b600090565b610b5b610b4e565b610b66818484610b29565b505050565b5b81811015610b8a57610b7f600082610b53565b600181019050610b6c565b5050565b601f821115610bcf57610ba081610a65565b610ba984610a7a565b81016020851015610bb8578190505b610bcc610bc485610a7a565b830182610b6b565b50505b505050565b600082821c905092915050565b6000610bf260001984600802610bd4565b1980831691505092915050565b6000610c0b8383610be1565b9150826002028217905092915050565b610c24826107fc565b67ffffffffffffffff811115610c3d57610c3c610659565b5b610c478254610a34565b610c52828285610b8e565b600060209050601f831160018114610c855760008415610c73578287015190505b610c7d8582610bff565b865550610ce5565b601f198416610c9386610a65565b60005b82811015610cbb57848901518255600182019150602085019450602081019050610c96565b86831015610cd85784890151610cd4601f891682610be1565b8355505b6001600288020188555050505b505050505050565b7f486173682053746f726564000000000000000000000000000000000000000000600082015250565b6000610d23600b83610807565b9150610d2e82610ced565b602082019050919050565b60006020820190508181036000830152610d5281610d16565b9050919050565b7f4861736820646f6573206e6f7420657869737400000000000000000000000000600082015250565b6000610d8f601383610807565b9150610d9a82610d59565b602082019050919050565b60006040820190508181036000830152610dbf8184610842565b90508181036020830152610dd281610d82565b905092915050565b7f4861736820616c72656164792065787069726564000000000000000000000000600082015250565b6000610e10601483610807565b9150610e1b82610dda565b602082019050919050565b60006040820190508181036000830152610e408184610842565b90508181036020830152610e5381610e03565b90509291505056fea2646970667358221220bb86da8348a22422c7dc1f8a493f9708a758571ff9ac6f6c8da04ea006a4876764736f6c63430008110033",
  "linkReferences": {},
  "deployedLinkReferences": {}
}