{
  "_format": "hh-sol-artifact-1",
  "contractName": "HashStorage",
  "sourceName": "contracts/HashStorage.sol",
  "abi": [
    {
      "anonymous": false,
      "inputs": [
        {
          "indexed": false,
          "internalType": "string",
          "name": "hash",
          "type": "string"
        },
        {
          "indexed": false,
          "internalType": "string",
          "name": "reason",
          "type": "string"
        }
      ],
      "name": "HashDeleteFailed",
      "type": "event"
    },
    {
      "anonymous": false,
      "inputs": [
        {
          "indexed": false,
          "internalType": "string",
          "name": "hash",
          "type": "string"
        }
      ],
      "name": "HashDeleted",
      "type": "event"
    },
    {
      "anonymous": false,
      "inputs": [
        {
          "indexed": false,
          "internalType": "string",
          "name": "hash",
          "type": "string"
        },
        {
          "indexed": false,
          "internalType": "string",
          "name": "reason",
          "type": "string"
        }
      ],
      "name": "HashStoreFailed",
      "type": "event"
    },
    {
      "anonymous": false,
      "inputs": [
        {
          "indexed": false,
          "internalType": "string",
          "name": "hash",
          "type": "string"
        }
      ],
      "name": "HashStored",
      "type": "event"
    },
    {
      "inputs": [
        {
          "internalType": "string",
          "name": "hash",
          "type": "string"
        }
      ],
      "name": "deleteHash",
      "outputs": [
        {
          "internalType": "string",
          "name": "",
          "type": "string"
        }
      ],
      "stateMutability": "nonpayable",
      "type": "function"
    },
    {
      "inputs": [
        {
          "internalType": "string[]",
          "name": "hashes",
          "type": "string[]"
        }
      ],
      "name": "storeHash",
      "outputs": [
        {
          "internalType": "bool",
          "name": "",
          "type": "bool"
        }
      ],
      "stateMutability": "nonpayable",
      "type": "function"
    },
    {
      "inputs": [
        {
          "internalType": "string",
          "name": "hash",
          "type": "string"
        }
      ],
      "name": "verifyHash",
      "outputs": [
        {
          "internalType": "bool",
          "name": "",
          "type": "bool"
        }
      ],
      "stateMutability": "view",
      "type": "function"
    }
  ],
  "bytecode": "0x608060405234801561001057600080fd5b50610a3f806100206000396000f3fe608060405234801561001057600080fd5b50600436106100415760003560e01c806386fb28131461004657806395df4b4014610076578063a856481c146100a6575b600080fd5b610060600480360381019061005b91906105b5565b6100d6565b60405161006d9190610619565b60405180910390f35b610090600480360381019061008b919061071a565b610140565b60405161009d9190610619565b60405180910390f35b6100c060048036038101906100bb91906105b5565b610265565b6040516100cd91906107e2565b60405180910390f35b600080826040516100e79190610840565b908152602001604051809103902060009054906101000a900460ff16158015610139575060018260405161011b9190610840565b908152602001604051809103902060009054906101000a900460ff16155b9050919050565b6000806001905060005b835181101561025b57600084828151811061016857610167610857565b5b602002602001015160405161017d9190610840565b908152602001604051809103902060009054906101000a900460ff1661024357600160008583815181106101b4576101b3610857565b5b60200260200101516040516101c99190610840565b908152602001604051809103902060006101000a81548160ff02191690831515021790555060018085838151811061020457610203610857565b5b60200260200101516040516102199190610840565b908152602001604051809103902060006101000a81548160ff021916908315150217905550610248565b600091505b8080610253906108bf565b91505061014a565b5080915050919050565b60606001826040516102779190610840565b908152602001604051809103902060009054906101000a900460ff1661030b577f8c1ad75e6c7eaa3e4cba65f0fb6c781e4a6bf84d1ec952823be277270502bdee826040516102c69190610953565b60405180910390a16040518060400160405280601281526020017f515220616c7265616479206578706972656400000000000000000000000000008152509050610456565b60008260405161031b9190610840565b908152602001604051809103902060009054906101000a900460ff166103af577f8c1ad75e6c7eaa3e4cba65f0fb6c781e4a6bf84d1ec952823be277270502bdee8260405161036a91906109d4565b60405180910390a16040518060400160405280601181526020017f515220646f6573206e6f742065786973740000000000000000000000000000008152509050610456565b60006001836040516103c19190610840565b908152602001604051809103902060006101000a81548160ff0219169083151502179055507f8ecb468e2f182ba98c1b7a52663d6e565ba67dc110006dec32a865d8ae45284c8260405161041591906107e2565b60405180910390a16040518060400160405280601781526020017f51522065787069726564207375636365737366756c6c7900000000000000000081525090505b919050565b6000604051905090565b600080fd5b600080fd5b600080fd5b600080fd5b6000601f19601f8301169050919050565b7f4e487b7100000000000000000000000000000000000000000000000000000000600052604160045260246000fd5b6104c282610479565b810181811067ffffffffffffffff821117156104e1576104e061048a565b5b80604052505050565b60006104f461045b565b905061050082826104b9565b919050565b600067ffffffffffffffff8211156105205761051f61048a565b5b61052982610479565b9050602081019050919050565b82818337600083830152505050565b600061055861055384610505565b6104ea565b90508281526020810184848401111561057457610573610474565b5b61057f848285610536565b509392505050565b600082601f83011261059c5761059b61046f565b5b81356105ac848260208601610545565b91505092915050565b6000602082840312156105cb576105ca610465565b5b600082013567ffffffffffffffff8111156105e9576105e861046a565b5b6105f584828501610587565b91505092915050565b60008115159050919050565b610613816105fe565b82525050565b600060208201905061062e600083018461060a565b92915050565b600067ffffffffffffffff82111561064f5761064e61048a565b5b602082029050602081019050919050565b600080fd5b600061067861067384610634565b6104ea565b9050808382526020820190506020840283018581111561069b5761069a610660565b5b835b818110156106e257803567ffffffffffffffff8111156106c0576106bf61046f565b5b8086016106cd8982610587565b8552602085019450505060208101905061069d565b5050509392505050565b600082601f8301126107015761070061046f565b5b8135610711848260208601610665565b91505092915050565b6000602082840312156107305761072f610465565b5b600082013567ffffffffffffffff81111561074e5761074d61046a565b5b61075a848285016106ec565b91505092915050565b600081519050919050565b600082825260208201905092915050565b60005b8381101561079d578082015181840152602081019050610782565b60008484015250505050565b60006107b482610763565b6107be818561076e565b93506107ce81856020860161077f565b6107d781610479565b840191505092915050565b600060208201905081810360008301526107fc81846107a9565b905092915050565b600081905092915050565b600061081a82610763565b6108248185610804565b935061083481856020860161077f565b80840191505092915050565b600061084c828461080f565b915081905092915050565b7f4e487b7100000000000000000000000000000000000000000000000000000000600052603260045260246000fd5b7f4e487b7100000000000000000000000000000000000000000000000000000000600052601160045260246000fd5b6000819050919050565b60006108ca826108b5565b91507fffffffffffffffffffffffffffffffffffffffffffffffffffffffffffffffff82036108fc576108fb610886565b5b600182019050919050565b7f515220616c726561647920657870697265640000000000000000000000000000600082015250565b600061093d60128361076e565b915061094882610907565b602082019050919050565b6000604082019050818103600083015261096d81846107a9565b9050818103602083015261098081610930565b905092915050565b7f515220646f6573206e6f74206578697374000000000000000000000000000000600082015250565b60006109be60118361076e565b91506109c982610988565b602082019050919050565b600060408201905081810360008301526109ee81846107a9565b90508181036020830152610a01816109b1565b90509291505056fea26469706673582212209d970190caca462abf26cdb1d2b12674ffccb5a7cddaeaf36ca5ebef6c657c8964736f6c63430008130033",
  "linkReferences": {},
  "deployedLinkReferences": {}
}