{
  "_format": "hh-sol-artifact-1",
  "contractName": "HashStorage",
  "sourceName": "contracts/HashStorage.sol",
  "abi": [
    {
      "anonymous": false,
      "inputs": [
        {
          "indexed": false,
          "internalType": "string",
          "name": "hash",
          "type": "string"
        },
        {
          "indexed": false,
          "internalType": "string",
          "name": "reason",
          "type": "string"
        }
      ],
      "name": "HashDeleteFailed",
      "type": "event"
    },
    {
      "anonymous": false,
      "inputs": [
        {
          "indexed": false,
          "internalType": "string",
          "name": "hash",
          "type": "string"
        }
      ],
      "name": "HashDeleted",
      "type": "event"
    },
    {
      "anonymous": false,
      "inputs": [
        {
          "indexed": false,
          "internalType": "string",
          "name": "hash",
          "type": "string"
        },
        {
          "indexed": false,
          "internalType": "string",
          "name": "reason",
          "type": "string"
        }
      ],
      "name": "HashStoreFailed",
      "type": "event"
    },
    {
      "anonymous": false,
      "inputs": [
        {
          "indexed": false,
          "internalType": "string",
          "name": "hash",
          "type": "string"
        }
      ],
      "name": "HashStored",
      "type": "event"
    },
    {
      "inputs": [
        {
          "internalType": "string",
          "name": "hash",
          "type": "string"
        }
      ],
      "name": "deleteHash",
      "outputs": [
        {
          "internalType": "string",
          "name": "",
          "type": "string"
        }
      ],
      "stateMutability": "nonpayable",
      "type": "function"
    },
    {
      "inputs": [
        {
          "internalType": "string[]",
          "name": "hashes",
          "type": "string[]"
        }
      ],
      "name": "storeHash",
      "outputs": [
        {
          "internalType": "bool",
          "name": "",
          "type": "bool"
        }
      ],
      "stateMutability": "nonpayable",
      "type": "function"
    },
    {
      "inputs": [
        {
          "internalType": "string",
          "name": "hash",
          "type": "string"
        }
      ],
      "name": "verifyHash",
      "outputs": [
        {
          "internalType": "bool",
          "name": "",
          "type": "bool"
        }
      ],
      "stateMutability": "view",
      "type": "function"
    }
  ],
  "bytecode": "0x608060405234801561001057600080fd5b50610b73806100206000396000f3fe608060405234801561001057600080fd5b50600436106100415760003560e01c806386fb28131461004657806395df4b4014610076578063a856481c146100a6575b600080fd5b610060600480360381019061005b9190610668565b6100d6565b60405161006d91906106cc565b60405180910390f35b610090600480360381019061008b91906107cd565b610151565b60405161009d91906106cc565b60405180910390f35b6100c060048036038101906100bb9190610668565b610318565b6040516100cd9190610895565b60405180910390f35b600080826040516100e791906108f3565b908152602001604051809103902060009054906101000a900460ff16158015610139575060018260405161011b91906108f3565b908152602001604051809103902060009054906101000a900460ff16155b15610147576001905061014c565b600090505b919050565b6000806001905060005b835181101561030e5760008482815181106101795761017861090a565b5b602002602001015160405161018e91906108f3565b908152602001604051809103902060009054906101000a900460ff166102a557600160008583815181106101c5576101c461090a565b5b60200260200101516040516101da91906108f3565b908152602001604051809103902060006101000a81548160ff0219169083151502179055506001808583815181106102155761021461090a565b5b602002602001015160405161022a91906108f3565b908152602001604051809103902060006101000a81548160ff0219169083151502179055507fc11dc30fab9e1049e39849c934756251850c71b749c0dff181b2a28074fca60e8482815181106102835761028261090a565b5b60200260200101516040516102989190610895565b60405180910390a16102fb565b7f1bd68487f56fd1cac25d985db07fe5b569b4cdbd44d75749b6574b7162dcb4198482815181106102d9576102d861090a565b5b60200260200101516040516102ee9190610985565b60405180910390a1600091505b8080610306906109f3565b91505061015b565b5080915050919050565b606060008260405161032a91906108f3565b908152602001604051809103902060009054906101000a900460ff166103be577f8c1ad75e6c7eaa3e4cba65f0fb6c781e4a6bf84d1ec952823be277270502bdee826040516103799190610a87565b60405180910390a16040518060400160405280601381526020017f4861736820646f6573206e6f74206578697374000000000000000000000000008152509050610509565b6001826040516103ce91906108f3565b908152602001604051809103902060009054906101000a900460ff16610462577f8c1ad75e6c7eaa3e4cba65f0fb6c781e4a6bf84d1ec952823be277270502bdee8260405161041d9190610b08565b60405180910390a16040518060400160405280601481526020017f4861736820616c726561647920657870697265640000000000000000000000008152509050610509565b600060018360405161047491906108f3565b908152602001604051809103902060006101000a81548160ff0219169083151502179055507f8ecb468e2f182ba98c1b7a52663d6e565ba67dc110006dec32a865d8ae45284c826040516104c89190610895565b60405180910390a16040518060400160405280601981526020017f486173682065787069726564207375636365737366756c6c790000000000000081525090505b919050565b6000604051905090565b600080fd5b600080fd5b600080fd5b600080fd5b6000601f19601f8301169050919050565b7f4e487b7100000000000000000000000000000000000000000000000000000000600052604160045260246000fd5b6105758261052c565b810181811067ffffffffffffffff821117156105945761059361053d565b5b80604052505050565b60006105a761050e565b90506105b3828261056c565b919050565b600067ffffffffffffffff8211156105d3576105d261053d565b5b6105dc8261052c565b9050602081019050919050565b82818337600083830152505050565b600061060b610606846105b8565b61059d565b90508281526020810184848401111561062757610626610527565b5b6106328482856105e9565b509392505050565b600082601f83011261064f5761064e610522565b5b813561065f8482602086016105f8565b91505092915050565b60006020828403121561067e5761067d610518565b5b600082013567ffffffffffffffff81111561069c5761069b61051d565b5b6106a88482850161063a565b91505092915050565b60008115159050919050565b6106c6816106b1565b82525050565b60006020820190506106e160008301846106bd565b92915050565b600067ffffffffffffffff8211156107025761070161053d565b5b602082029050602081019050919050565b600080fd5b600061072b610726846106e7565b61059d565b9050808382526020820190506020840283018581111561074e5761074d610713565b5b835b8181101561079557803567ffffffffffffffff81111561077357610772610522565b5b808601610780898261063a565b85526020850194505050602081019050610750565b5050509392505050565b600082601f8301126107b4576107b3610522565b5b81356107c4848260208601610718565b91505092915050565b6000602082840312156107e3576107e2610518565b5b600082013567ffffffffffffffff8111156108015761080061051d565b5b61080d8482850161079f565b91505092915050565b600081519050919050565b600082825260208201905092915050565b60005b83811015610850578082015181840152602081019050610835565b60008484015250505050565b600061086782610816565b6108718185610821565b9350610881818560208601610832565b61088a8161052c565b840191505092915050565b600060208201905081810360008301526108af818461085c565b905092915050565b600081905092915050565b60006108cd82610816565b6108d781856108b7565b93506108e7818560208601610832565b80840191505092915050565b60006108ff82846108c2565b915081905092915050565b7f4e487b7100000000000000000000000000000000000000000000000000000000600052603260045260246000fd5b7f4861736820616c72656164792065786973747300000000000000000000000000600082015250565b600061096f601383610821565b915061097a82610939565b602082019050919050565b6000604082019050818103600083015261099f818461085c565b905081810360208301526109b281610962565b905092915050565b7f4e487b7100000000000000000000000000000000000000000000000000000000600052601160045260246000fd5b6000819050919050565b60006109fe826109e9565b91507fffffffffffffffffffffffffffffffffffffffffffffffffffffffffffffffff8203610a3057610a2f6109ba565b5b600182019050919050565b7f4861736820646f6573206e6f7420657869737400000000000000000000000000600082015250565b6000610a71601383610821565b9150610a7c82610a3b565b602082019050919050565b60006040820190508181036000830152610aa1818461085c565b90508181036020830152610ab481610a64565b905092915050565b7f4861736820616c72656164792065787069726564000000000000000000000000600082015250565b6000610af2601483610821565b9150610afd82610abc565b602082019050919050565b60006040820190508181036000830152610b22818461085c565b90508181036020830152610b3581610ae5565b90509291505056fea2646970667358221220aa264292883b4f47ac588b51bba9ec4e56ca300d7ef81c3918084c49c403ff3a64736f6c63430008130033",
  "linkReferences": {},
  "deployedLinkReferences": {}
}