{
  "_format": "hh-sol-artifact-1",
  "contractName": "HashStorage",
  "sourceName": "contracts/HashStorage.sol",
  "abi": [
    {
      "anonymous": false,
      "inputs": [
        {
          "indexed": false,
          "internalType": "string",
          "name": "hash",
          "type": "string"
        },
        {
          "indexed": false,
          "internalType": "string",
          "name": "reason",
          "type": "string"
        }
      ],
      "name": "HashDeleteFailed",
      "type": "event"
    },
    {
      "anonymous": false,
      "inputs": [
        {
          "indexed": false,
          "internalType": "string",
          "name": "hash",
          "type": "string"
        }
      ],
      "name": "HashDeleted",
      "type": "event"
    },
    {
      "anonymous": false,
      "inputs": [
        {
          "indexed": false,
          "internalType": "string",
          "name": "hash",
          "type": "string"
        },
        {
          "indexed": false,
          "internalType": "string",
          "name": "reason",
          "type": "string"
        }
      ],
      "name": "HashStoreFailed",
      "type": "event"
    },
    {
      "anonymous": false,
      "inputs": [
        {
          "indexed": false,
          "internalType": "string",
          "name": "hash",
          "type": "string"
        }
      ],
      "name": "HashStored",
      "type": "event"
    },
    {
      "inputs": [
        {
          "internalType": "string",
          "name": "hash",
          "type": "string"
        }
      ],
      "name": "deleteHash",
      "outputs": [
        {
          "internalType": "string",
          "name": "",
          "type": "string"
        }
      ],
      "stateMutability": "nonpayable",
      "type": "function"
    },
    {
      "inputs": [
        {
          "internalType": "string",
          "name": "hash",
          "type": "string"
        },
        {
          "internalType": "string",
          "name": "param",
          "type": "string"
        }
      ],
      "name": "storeHash",
      "outputs": [
        {
          "internalType": "bool",
          "name": "",
          "type": "bool"
        }
      ],
      "stateMutability": "nonpayable",
      "type": "function"
    },
    {
      "inputs": [
        {
          "internalType": "string",
          "name": "hash",
          "type": "string"
        }
      ],
      "name": "verifyHash",
      "outputs": [
        {
          "internalType": "bool",
          "name": "",
          "type": "bool"
        },
        {
          "internalType": "string",
          "name": "",
          "type": "string"
        }
      ],
      "stateMutability": "view",
      "type": "function"
    }
  ],
  "bytecode": "0x608060405234801561001057600080fd5b50610dd9806100206000396000f3fe608060405234801561001057600080fd5b50600436106100415760003560e01c80636f28ee091461004657806386fb281314610076578063a856481c146100a7575b600080fd5b610060600480360381019061005b919061071d565b6100d7565b60405161006d91906107b0565b60405180910390f35b610090600480360381019061008b91906107cb565b61028e565b60405161009e929190610893565b60405180910390f35b6100c160048036038101906100bc91906107cb565b6103cd565b6040516100ce91906108c3565b60405180910390f35b600080836040516100e89190610921565b908152602001604051809103902060009054906101000a900460ff168015610138575060018360405161011b9190610921565b908152602001604051809103902060009054906101000a900460ff165b1561017d577f1bd68487f56fd1cac25d985db07fe5b569b4cdbd44d75749b6574b7162dcb4198360405161016c9190610984565b60405180910390a160009050610288565b6040518060400160405280848152602001838152506002846040516101a29190610921565b908152602001604051809103902060008201518160000190816101c59190610bcf565b5060208201518160010190816101db9190610bcf565b5090505060016000846040516101f19190610921565b908152602001604051809103902060006101000a81548160ff021916908315150217905550600180846040516102279190610921565b908152602001604051809103902060006101000a81548160ff0219169083151502179055507fc11dc30fab9e1049e39849c934756251850c71b749c0dff181b2a28074fca60e8360405161027b91906108c3565b60405180910390a1600190505b92915050565b600060606000836040516102a29190610921565b908152602001604051809103902060009054906101000a900460ff161580156102f457506001836040516102d69190610921565b908152602001604051809103902060009054906101000a900460ff16155b156103b157600060028460405161030b9190610921565b9081526020016040518091039020600101808054610328906109e8565b80601f0160208091040260200160405190810160405280929190818152602001828054610354906109e8565b80156103a15780601f10610376576101008083540402835291602001916103a1565b820191906000526020600020905b81548152906001019060200180831161038457829003601f168201915b50505050509050915091506103c8565b600160405180602001604052806000815250915091505b915091565b60606000826040516103df9190610921565b908152602001604051809103902060009054906101000a900460ff16610473577f8c1ad75e6c7eaa3e4cba65f0fb6c781e4a6bf84d1ec952823be277270502bdee8260405161042e9190610ced565b60405180910390a16040518060400160405280601381526020017f4861736820646f6573206e6f742065786973740000000000000000000000000081525090506105be565b6001826040516104839190610921565b908152602001604051809103902060009054906101000a900460ff16610517577f8c1ad75e6c7eaa3e4cba65f0fb6c781e4a6bf84d1ec952823be277270502bdee826040516104d29190610d6e565b60405180910390a16040518060400160405280601481526020017f4861736820616c7265616479206578706972656400000000000000000000000081525090506105be565b60006001836040516105299190610921565b908152602001604051809103902060006101000a81548160ff0219169083151502179055507f8ecb468e2f182ba98c1b7a52663d6e565ba67dc110006dec32a865d8ae45284c8260405161057d91906108c3565b60405180910390a16040518060400160405280601981526020017f486173682065787069726564207375636365737366756c6c790000000000000081525090505b919050565b6000604051905090565b600080fd5b600080fd5b600080fd5b600080fd5b6000601f19601f8301169050919050565b7f4e487b7100000000000000000000000000000000000000000000000000000000600052604160045260246000fd5b61062a826105e1565b810181811067ffffffffffffffff82111715610649576106486105f2565b5b80604052505050565b600061065c6105c3565b90506106688282610621565b919050565b600067ffffffffffffffff821115610688576106876105f2565b5b610691826105e1565b9050602081019050919050565b82818337600083830152505050565b60006106c06106bb8461066d565b610652565b9050828152602081018484840111156106dc576106db6105dc565b5b6106e784828561069e565b509392505050565b600082601f830112610704576107036105d7565b5b81356107148482602086016106ad565b91505092915050565b60008060408385031215610734576107336105cd565b5b600083013567ffffffffffffffff811115610752576107516105d2565b5b61075e858286016106ef565b925050602083013567ffffffffffffffff81111561077f5761077e6105d2565b5b61078b858286016106ef565b9150509250929050565b60008115159050919050565b6107aa81610795565b82525050565b60006020820190506107c560008301846107a1565b92915050565b6000602082840312156107e1576107e06105cd565b5b600082013567ffffffffffffffff8111156107ff576107fe6105d2565b5b61080b848285016106ef565b91505092915050565b600081519050919050565b600082825260208201905092915050565b60005b8381101561084e578082015181840152602081019050610833565b60008484015250505050565b600061086582610814565b61086f818561081f565b935061087f818560208601610830565b610888816105e1565b840191505092915050565b60006040820190506108a860008301856107a1565b81810360208301526108ba818461085a565b90509392505050565b600060208201905081810360008301526108dd818461085a565b905092915050565b600081905092915050565b60006108fb82610814565b61090581856108e5565b9350610915818560208601610830565b80840191505092915050565b600061092d82846108f0565b915081905092915050565b7f4861736820616c72656164792065786973747300000000000000000000000000600082015250565b600061096e60138361081f565b915061097982610938565b602082019050919050565b6000604082019050818103600083015261099e818461085a565b905081810360208301526109b181610961565b905092915050565b7f4e487b7100000000000000000000000000000000000000000000000000000000600052602260045260246000fd5b60006002820490506001821680610a0057607f821691505b602082108103610a1357610a126109b9565b5b50919050565b60008190508160005260206000209050919050565b60006020601f8301049050919050565b600082821b905092915050565b600060088302610a7b7fffffffffffffffffffffffffffffffffffffffffffffffffffffffffffffffff82610a3e565b610a858683610a3e565b95508019841693508086168417925050509392505050565b6000819050919050565b6000819050919050565b6000610acc610ac7610ac284610a9d565b610aa7565b610a9d565b9050919050565b6000819050919050565b610ae683610ab1565b610afa610af282610ad3565b848454610a4b565b825550505050565b600090565b610b0f610b02565b610b1a818484610add565b505050565b5b81811015610b3e57610b33600082610b07565b600181019050610b20565b5050565b601f821115610b8357610b5481610a19565b610b5d84610a2e565b81016020851015610b6c578190505b610b80610b7885610a2e565b830182610b1f565b50505b505050565b600082821c905092915050565b6000610ba660001984600802610b88565b1980831691505092915050565b6000610bbf8383610b95565b9150826002028217905092915050565b610bd882610814565b67ffffffffffffffff811115610bf157610bf06105f2565b5b610bfb82546109e8565b610c06828285610b42565b600060209050601f831160018114610c395760008415610c27578287015190505b610c318582610bb3565b865550610c99565b601f198416610c4786610a19565b60005b82811015610c6f57848901518255600182019150602085019450602081019050610c4a565b86831015610c8c5784890151610c88601f891682610b95565b8355505b6001600288020188555050505b505050505050565b7f4861736820646f6573206e6f7420657869737400000000000000000000000000600082015250565b6000610cd760138361081f565b9150610ce282610ca1565b602082019050919050565b60006040820190508181036000830152610d07818461085a565b90508181036020830152610d1a81610cca565b905092915050565b7f4861736820616c72656164792065787069726564000000000000000000000000600082015250565b6000610d5860148361081f565b9150610d6382610d22565b602082019050919050565b60006040820190508181036000830152610d88818461085a565b90508181036020830152610d9b81610d4b565b90509291505056fea2646970667358221220b4d435aa61b644260bf0b7920428b094c2175a1d5029a243d849dd42a450db5564736f6c63430008110033",
  "linkReferences": {},
  "deployedLinkReferences": {}
}