{
  "_format": "hh-sol-artifact-1",
  "contractName": "HashStorage",
  "sourceName": "contracts/HashStorage.sol",
  "abi": [
    {
      "anonymous": false,
      "inputs": [
        {
          "indexed": false,
          "internalType": "string",
          "name": "hash",
          "type": "string"
        },
        {
          "indexed": false,
          "internalType": "string",
          "name": "reason",
          "type": "string"
        }
      ],
      "name": "HashDeleteFailed",
      "type": "event"
    },
    {
      "anonymous": false,
      "inputs": [
        {
          "indexed": false,
          "internalType": "string",
          "name": "hash",
          "type": "string"
        }
      ],
      "name": "HashDeleted",
      "type": "event"
    },
    {
      "anonymous": false,
      "inputs": [
        {
          "indexed": false,
          "internalType": "string",
          "name": "hash",
          "type": "string"
        },
        {
          "indexed": false,
          "internalType": "string",
          "name": "reason",
          "type": "string"
        }
      ],
      "name": "HashStoreFailed",
      "type": "event"
    },
    {
      "anonymous": false,
      "inputs": [
        {
          "indexed": false,
          "internalType": "string",
          "name": "hash",
          "type": "string"
        }
      ],
      "name": "HashStored",
      "type": "event"
    },
    {
      "inputs": [
        {
          "internalType": "string",
          "name": "hash",
          "type": "string"
        }
      ],
      "name": "deleteHash",
      "outputs": [
        {
          "internalType": "bool",
          "name": "",
          "type": "bool"
        }
      ],
      "stateMutability": "nonpayable",
      "type": "function"
    },
    {
      "inputs": [
        {
          "internalType": "string",
          "name": "hash",
          "type": "string"
        }
      ],
      "name": "storeHash",
      "outputs": [
        {
          "internalType": "bool",
          "name": "",
          "type": "bool"
        }
      ],
      "stateMutability": "nonpayable",
      "type": "function"
    },
    {
      "inputs": [
        {
          "internalType": "string",
          "name": "hash",
          "type": "string"
        }
      ],
      "name": "verifyHash",
      "outputs": [
        {
          "internalType": "bool",
          "name": "",
          "type": "bool"
        }
      ],
      "stateMutability": "view",
      "type": "function"
    }
  ],
  "bytecode": "0x608060405234801561001057600080fd5b50610871806100206000396000f3fe608060405234801561001057600080fd5b50600436106100415760003560e01c806371dc61cb1461004657806386fb281314610076578063a856481c146100a6575b600080fd5b610060600480360381019061005b9190610545565b6100d6565b60405161006d91906105a9565b60405180910390f35b610090600480360381019061008b9190610545565b61022a565b60405161009d91906105a9565b60405180910390f35b6100c060048036038101906100bb9190610545565b610292565b6040516100cd91906105a9565b60405180910390f35b600080826040516100e79190610635565b908152602001604051809103902060009054906101000a900460ff168015610137575060018260405161011a9190610635565b908152602001604051809103902060009054906101000a900460ff165b1561017c577f1bd68487f56fd1cac25d985db07fe5b569b4cdbd44d75749b6574b7162dcb4198260405161016b91906106e2565b60405180910390a160009050610225565b600160008360405161018e9190610635565b908152602001604051809103902060006101000a81548160ff021916908315150217905550600180836040516101c49190610635565b908152602001604051809103902060006101000a81548160ff0219169083151502179055507fc11dc30fab9e1049e39849c934756251850c71b749c0dff181b2a28074fca60e826040516102189190610717565b60405180910390a1600190505b919050565b6000808260405161023b9190610635565b908152602001604051809103902060009054906101000a900460ff16801561028b575060018260405161026e9190610635565b908152602001604051809103902060009054906101000a900460ff165b9050919050565b600080826040516102a39190610635565b908152602001604051809103902060009054906101000a900460ff16610303577f8c1ad75e6c7eaa3e4cba65f0fb6c781e4a6bf84d1ec952823be277270502bdee826040516102f29190610785565b60405180910390a1600090506103e6565b6001826040516103139190610635565b908152602001604051809103902060009054906101000a900460ff16610373577f8c1ad75e6c7eaa3e4cba65f0fb6c781e4a6bf84d1ec952823be277270502bdee826040516103629190610806565b60405180910390a1600090506103e6565b60006001836040516103859190610635565b908152602001604051809103902060006101000a81548160ff0219169083151502179055507f8ecb468e2f182ba98c1b7a52663d6e565ba67dc110006dec32a865d8ae45284c826040516103d99190610717565b60405180910390a1600190505b919050565b6000604051905090565b600080fd5b600080fd5b600080fd5b600080fd5b6000601f19601f8301169050919050565b7f4e487b7100000000000000000000000000000000000000000000000000000000600052604160045260246000fd5b61045282610409565b810181811067ffffffffffffffff821117156104715761047061041a565b5b80604052505050565b60006104846103eb565b90506104908282610449565b919050565b600067ffffffffffffffff8211156104b0576104af61041a565b5b6104b982610409565b9050602081019050919050565b82818337600083830152505050565b60006104e86104e384610495565b61047a565b90508281526020810184848401111561050457610503610404565b5b61050f8482856104c6565b509392505050565b600082601f83011261052c5761052b6103ff565b5b813561053c8482602086016104d5565b91505092915050565b60006020828403121561055b5761055a6103f5565b5b600082013567ffffffffffffffff811115610579576105786103fa565b5b61058584828501610517565b91505092915050565b60008115159050919050565b6105a38161058e565b82525050565b60006020820190506105be600083018461059a565b92915050565b600081519050919050565b600081905092915050565b60005b838110156105f85780820151818401526020810190506105dd565b60008484015250505050565b600061060f826105c4565b61061981856105cf565b93506106298185602086016105da565b80840191505092915050565b60006106418284610604565b915081905092915050565b600082825260208201905092915050565b6000610668826105c4565b610672818561064c565b93506106828185602086016105da565b61068b81610409565b840191505092915050565b7f4861736820616c72656164792065786973747300000000000000000000000000600082015250565b60006106cc60138361064c565b91506106d782610696565b602082019050919050565b600060408201905081810360008301526106fc818461065d565b9050818103602083015261070f816106bf565b905092915050565b60006020820190508181036000830152610731818461065d565b905092915050565b7f4861736820646f6573206e6f7420657869737400000000000000000000000000600082015250565b600061076f60138361064c565b915061077a82610739565b602082019050919050565b6000604082019050818103600083015261079f818461065d565b905081810360208301526107b281610762565b905092915050565b7f4861736820616c72656164792065787069726564000000000000000000000000600082015250565b60006107f060148361064c565b91506107fb826107ba565b602082019050919050565b60006040820190508181036000830152610820818461065d565b90508181036020830152610833816107e3565b90509291505056fea264697066735822122014bb643d2591709f578b4a7aee563dff85eb7030b0a948ff22b977a4ff85c15464736f6c63430008110033",
  "linkReferences": {},
  "deployedLinkReferences": {}
}